:020000040800F2
:10000000E0060020CD010008810800081505000861
:10001000E90700083B030008A30D000800000000EA
:10002000000000000000000000000000010A0008BD
:100030003F0300080000000009090008150B000834
:10004000E7010008E7010008E7010008E7010008F0
:10005000E7010008E7010008E7010008E7010008E0
:10006000E7010008E7010008E7010008E7010008D0
:10007000E7010008E7010008E7010008E7010008C0
:10008000E7010008E7010008E7010008E7010008B0
:10009000E7010008E7010008E7010008E7010008A0
:1000A000E7010008E7010008E7010008E701000890
:1000B000E7010008E7010008E7010008E701000880
:1000C000E7010008E7010008E7010008E701000870
:1000D000E7010008990B0008E7010008E7010008A4
:1000E000E7010008E7010008E7010008E701000850
:1000F000E7010008E7010008E7010008E701000840
:10010000E7010008E7010008E7010008E70100082F
:10011000E7010008E7010008E7010008E70100081F
:10012000E7010008E7010008E7010008E70100080F
:1001300000F002F800F03AF80AA090E8000C8244BF
:100140008344AAF10107DA4501D100F02FF8AFF29C
:10015000090EBAE80F0013F0010F18BFFB1A43F0A5
:1001600001031847AC0E0000CC0E0000103A24BF6B
:1001700078C878C1FAD8520724BF30C830C144BF0C
:1001800004680C607047000000230024002500264E
:10019000103A28BF78C1FBD8520728BF30C148BFEA
:1001A0000B6070471FB51FBD10B510BD00F050F8B3
:1001B0001146FFF7F7FF00F065FE00F06EF803B49C
:1001C000FFF7F2FF03BC00F075F800000948804714
:1001D00009480047FEE7FEE7FEE7FEE7FEE7FEE729
:1001E000FEE7FEE7FEE7FEE704480549054A064B41
:1001F00070470000390B000831010008E0000020C2
:10020000E0060020E0020020E002002010B5431CC0
:1002100002E010F8011B71B18107FAD14FF00132F1
:1002200002C88C1A8C4314EAC211F9D0C01A0A060B
:1002300003D0C01E10BDC01A10BD0A0401D0801E1C
:1002400010BD0902FCD0401E10BD704770477047BA
:10025000754600F02BF8AE4605006946534620F07F
:100260000700854618B020B5FFF7BEFFBDE8204067
:100270004FF000064FF000074FF000084FF0000B62
:1002800021F00701AC46ACE8C009ACE8C009ACE815
:10029000C009ACE8C0098D46704710B50446AFF3FD
:1002A00000802046BDE81040FFF789BF0048704736
:1002B0008000002001491820ABBEFEE726000200A6
:1002C000704710B500F06AF910BD38B5044600F06B
:1002D000D1F9A02000F04EFA00F01EFA204600F0FE
:1002E00049FA00F019FA00F0C5F9A12000F042FA2D
:1002F00000F012FA0021684600F084F900F0E2F9FB
:100300009DF8000038BD70B505460C4600F0B2F906
:10031000A02000F02FFA00F0FFF9284600F02AFA9A
:1003200000F0FAF9204600F025FA00F0F5F900F0A7
:10033000C9F90A2000F05AFD70BD00BFFEE7704702
:100340002DE9F0410246002500260020002300246C
:10035000002791F803C00CF00F0591F803C00CF0D2
:10036000100CBCF1000F03D091F802C04CEA050557
:1003700091F800C0BCF1000F31D0146800202BE0D0
:100380004FF0010C0CFA00F3B1F800C00CEA0306C0
:100390009E4220D183004FF00F0C0CFA03F7BC43B0
:1003A00005FA03FC4CEA040491F803C0BCF1280FE1
:1003B00006D14FF0010C0CFA00FCC2F814C00AE0A0
:1003C00091F803C0BCF1480F05D14FF0010C0CFAB5
:1003D00000FCC2F810C0401C0828D1D31460B1F84A
:1003E00000C0BCF1FF0F34DD546800202EE000F1A6
:1003F000080C4FF0010808FA0CF3B1F800C00CEA41
:1004000003069E4221D183004FF00F0C0CFA03F734
:10041000BC4305FA03FC4CEA040491F803C0BCF1A8
:10042000280F05D100F1080C08FA0CF8C2F8148066
:1004300091F803C0BCF1480F07D100F1080C4FF050
:10044000010808FA0CF8C2F81080401C0828CED326
:100450005460BDE8F0810000F0B50A460023002496
:100460000021002500F00046B6F1004F02D11D4EDC
:10047000F16901E01B4E7168C0F3034583B200F4DB
:100480004016B6F5401F08D121F07061154E766810
:1004900026F07066134F7E6012E000F48016B6F509
:1004A000801F06D1032606FA05F4A14341F07061CE
:1004B00006E0460D360103FA06F6B14341F07061DD
:1004C00022B1460D360103FA06F6314300F000462C
:1004D000B6F1004F02D1034EF16101E0014E7160AF
:1004E000F0BD0000000001400246002093680B4070
:1004F0000BB1012000E00020704702460020D368C5
:100500000B400BB1012000E00020704741617047B3
:100510000161704700BFFEE710B502210348FFF7F5
:10052000F7FF034800F006F810BD0000000C014082
:100530002E00002070B5044600252046FFF766FE19
:10054000C5B22946204600F051F970BD10B51148DA
:10055000006820F070400F4908600846006840F0CD
:100560008050086002210C48FFF7D0FF04210A48A0
:10057000FFF7CCFF042000F05FFC04210648FFF7E2
:10058000C7FF022000F058FC04210348FFF7BEFF1C
:1005900010BD0000000C01400008014010B5022110
:1005A0000348FFF7B5FF04210148FFF7B1FF10BD75
:1005B0000008014010B51148006820F070400F4954
:1005C00008600846006840F08050086002210C482E
:1005D000FFF79EFF04210A48FFF798FF042000F070
:1005E0002BFC04210648FFF793FF022000F024FCB7
:1005F00004210348FFF78AFF10BD0000000C0140F2
:10060000000801402DE9F04105460E460027002470
:100610001648006820F070401449086008460068D9
:1006200040F00040086004211148FFF76FFF00BF51
:1006300011E004210E48FFF76BFF01210C48FFF782
:1006400053FF04436006040E04210948FFF75EFFD0
:100650002C70781CC7B2072FEBDC16B1FFF776FFC2
:1006600001E0FFF7A7FFBDE8F0810000000C0140AA
:100670000008014010B51148006820F070400F4993
:1006800008600846006840F08050086002210C486D
:10069000FFF73EFF04210A48FFF73AFF042000F06D
:1006A000CBFB02210648FFF731FF042000F0C4FB1A
:1006B00004210348FFF72AFF10BD0000000C014091
:1006C0000008014010B51248006820F07040104941
:1006D00008600846006840F08050086002210D481C
:1006E000FFF714FF04210B48FFF710FF042000F070
:1006F000A3FB04210748FFF70BFF042000F09CFB3D
:1007000002210448FFF704FF042000F095FB10BD10
:10071000000C01400008014010B500241348006897
:1007200020F07040114908600846006840F0004021
:10073000086004210E48FFF7EBFE07E0601CC4B21E
:10074000FA2C03DBFFF7BEFF012010BD0121084892
:10075000FFF7CAFE0028F1D104210548FFF7D6FEB5
:10076000022000F069FB0020EFE70000000C0140D0
:100770000008014070B504461948006820F0704038
:10078000174908600846006840F08050086004215E
:100790001448FFF7BBFE00251FE0E00920B102214D
:1007A0001048FFF7B5FE03E002210E48FFF7AEFE4A
:1007B0006006040E022000F03FFB04210948FFF709
:1007C000A7FE022000F038FB04210648FFF79EFE3A
:1007D000022000F031FB681CC5B2082DDDDB70BDC6
:1007E000000C01400008014000BFFEE770B505465F
:1007F0000E46002400BF0CE000BF4021064800F078
:10080000FFF90028F9D0295D034800F0C6FA601C02
:10081000C4B2B442F0DB70BD0038014000B585B011
:100820004FF4165001900020ADF810000C20ADF8E8
:100830000E000020ADF80C00ADF80A00ADF808007D
:1008400001A90E4800F038FA01210C4800F0CCF95B
:10085000012240F22551094800F009FA02208DF8E2
:1008600002008DF8010001208DF8030025208DF88D
:100870000000684600F006F805B000BD00380140F1
:100880007047000070B5002100230F22C47804B324
:10089000154C246804F4E064C4F5E064210AC1F155
:1008A0000403CA40447804FA03F1847814402143D5
:1008B00009010E4C0678A155047804F01F050124A7
:1008C000AC4005786D11AD0005F1E025C5F800419B
:1008D00009E0047804F01F050124AC40044D0678BB
:1008E000761145F8264070BD0CED00E000E400E014
:1008F00080E100E002490143024A116070470000B4
:100900000000FA050CED00E07047000029B1064A2E
:1009100092690243044B9A6104E0034A926982435C
:10092000014B9A61704700000010024030B5002171
:100930000022002400232D4D6D6805F00C0121B12B
:10094000042905D0082923D105E0294D056022E0BE
:10095000274D05601FE0254D6D6805F47012234D8D
:100960006D6805F48034022505EB92421CB9214DD7
:10097000554305600BE01D4D6D6805F400351DB154
:100980001C4D5543056002E0194D5543056002E0DA
:10099000174D056000BF00BF144D6D6805F0F001F4
:1009A0000909154D6B5C0568DD4045600F4D6D68AC
:1009B00005F4E061090A104D6B5C4568DD40856017
:1009C0000A4D6D6805F46051C90A0B4D6B5C4568B2
:1009D000DD40C560054D6D6805F44041890B074D4C
:1009E0006B5CC568B5FBF3F5056130BD00100240D6
:1009F00000127A0000093D001400002024000020AD
:100A0000704710B500F002F810BD00000CB50020D2
:100A1000019000903348006840F48030314908600C
:100A200000BF3048006800F4003000900198401C7E
:100A30000190009818B90198B0F5A06FF1D129483C
:100A4000006800F4003010B10120009001E00020A7
:100A500000900098012843D12348006840F010001E
:100A6000214908600846006820F003000860084635
:100A7000006840F0020008601A4840681949486060
:100A80000846406848600846406840F48060486016
:100A90000846406820F47C1048600846406840F4EE
:100AA000E81048600846006840F08070086000BFA9
:100AB0000C48006800F000700028F9D00948406830
:100AC00020F00300074948600846406840F00200F3
:100AD000486000BF0348406800F00C000828F9D1C6
:100AE0000CBD00000010024000200240042808D184
:100AF0004FF0E021096941F004014FF0E02211615B
:100B000007E04FF0E021096921F004014FF0E022F5
:100B10001161704710B520210648FFF7EEFC20B1A7
:100B200020210448FFF7F2FC03E020210148FFF7F1
:100B3000EFFC10BD000C014010B51348006840F0F8
:100B400001001149086008464068104908400E49F4
:100B50004860084600680E4908400B49086008468E
:100B6000006820F4802008600846406820F4FE00F9
:100B700048604FF41F008860FFF743FF4FF00060AC
:100B80000449086010BD0000001002400000FFF89A
:100B9000FFFFF6FE08ED00E010B540F225510E48CB
:100BA00000F03BF80D4908700846007858B10A4833
:100BB00000F0EEF80A490B4A127888540948007888
:100BC000401C0849087007480078632802D10020BB
:100BD0000449087010BD0000003801402D000020BD
:100BE000600000202C00002021B1828942F40052D4
:100BF000828104E082894DF6FF731A40828170473A
:100C000002460020B1F5007F00D100BF13880B40E1
:100C10000BB1012000E00020704770B502460024AF
:100C200000230025002040F66A16B14200D100BF23
:100C3000C1F3421501F01F03012606FA03F3012D4B
:100C400002D19689334006E0022D02D1168A334044
:100C500001E0968A33400C12012606FA04F4168845
:100C6000344013B10CB1012000E0002070BDF0B59C
:100C70000346002400260025002040F66A17B942EA
:100C800000D100BF1846C1F3421401F01F0601272E
:100C900007FA06F5012C01D10C3004E0022C01D139
:100CA000103000E014301AB107682F43076002E0EB
:100CB0000768AF430760F0BD2DE9F04786B00546F1
:100CC0000E460024A24600BFA1460027B08900B10D
:100CD00000BF2F462C8A4CF6FF700440F088044376
:100CE0002C82AC894EF6F3100440B0883189084359
:100CF000718908430443AC81AC8A4FF6FF4004403D
:100D0000B0890443AC8201A8FFF710FE1F48874258
:100D100002D1DDF810A001E0DDF80CA0A88900F4F4
:100D2000004040B10AEBCA0000EB0A1031684900EC
:100D3000B0FBF1F807E00AEBCA0000EB0A103168DB
:100D40008900B0FBF1F86420B8FBF0F00401200941
:100D5000642101FB1089A88900F4004040B13220D1
:100D600000EBC900B0FBF1F000F00700044308E01D
:100D7000322000EB09106421B0FBF1F000F00F000D
:100D800004432C8106B0BDE8F08700000038014024
:100D900001468888C0F308007047C1F308028280CA
:100DA000704700BFFEE7000010B56FF00400FFF7CA
:100DB0009DFE0A4800680A49B0FBF1F00949087035
:100DC0000846007800EB4001C1EBC0104FF6FF7100
:100DD00001EAC0000449088010BD000000000020A6
:100DE00000127A00280000202A0000200146114A43
:100DF00012884A434FF0E0235A6100229A611A4652
:100E0000126942F001021A6100BF4FF0E02210693E
:100E100000F001021AB100F48032002AF5D04FF040
:100E2000E022126922F001024FF0E0231A61002251
:100E30009A6170472A0000200146114A12784A43FD
:100E40004FF0E0235A6100229A611A46126942F07B
:100E500001021A6100BF4FF0E022106900F00102A8
:100E60001AB100F48032002AF5D04FF0E022126966
:100E700022F001024FF0E0231A6100229A617047CC
:100E8000280000201CB502208DF806008DF8050012
:100E900001208DF8070001A8FFF7F4FC4FF4A060D3
:100EA000FFF728FD012144F24D00FFF72FFD4FF41D
:100EB0000070ADF8000001208DF8020018208DF8B8
:100EC000030069464B48FFF73BFA4FF48060ADF8EA
:100ED000000001208DF8020004208DF8030069460F
:100EE0004448FFF72DFA1820ADF8000048208DF88F
:100EF000030069464048FFF723FA0120ADF80000DF
:100F000028208DF8030069463A48FFF719FA0120B6
:100F1000ADF800008DF8020004208DF8030069464A
:100F20003648FFF70DFA0220ADF8000001208DF8D9
:100F3000020018208DF8030069463048FFF700FAD8
:100F40002020ADF8000010208DF8030001208DF85E
:100F5000020069462948FFF7F3F92020ADF80000A8
:100F600010208DF8030001208DF802006946224808
:100F7000FFF7E6F90620ADF8000010208DF8030019
:100F800001208DF8020069461A48FFF7D9F90121BE
:100F90001B48FFF761FA8020ADF8000018208DF89B
:100FA000030001208DF8020069461648FFF7C8F9D2
:100FB000FFF7FAFEFFF732FCFFF7AEFAFFF781F911
:100FC00012210020FFF79FF90020FFF77EF90E495C
:100FD00008700EE000BF40210C48FFF711FE00280A
:100FE000F9D008210948FFF7D8FE4FF47A70FFF7CF
:100FF000FDFEEFE70008014000180140000C014031
:10100000000C1A00001001404C0000200038014084
:1010100030100008000000204C0000006C010008A7
:101020007C1000084C000020940600008801000895
:1010300000A24A04000000000000000001020304B6
:10104000060708090000000001020304010203046E
:1010500006070809020406080000000000004154C9
:101060002B56455253494F4E3F0D0A0000000000D9
:0C10700000000000000000000000000074
:04000005080001CD21
:00000001FF
