:020000040800F2
:1000000050080020CD010008F10300089D030008FE
:10001000ED0300087D0200087F06000800000000D4
:1000200000000000000000000000000015040008AF
:100030008102000800000000F30300082905000801
:10004000E7010008E7010008E7010008E7010008F0
:10005000E7010008E7010008E7010008E7010008E0
:10006000E7010008E7010008E7010008E7010008D0
:10007000E7010008E7010008E7010008E7010008C0
:10008000E7010008E7010008E7010008E7010008B0
:10009000E7010008E7010008E7010008E7010008A0
:1000A000E7010008E7010008E7010008E701000890
:1000B000E7010008E7010008E7010008E701000880
:1000C000E7010008E7010008E7010008E701000870
:1000D000E701000899050008E7010008E7010008AA
:1000E000E7010008E7010008E7010008E701000850
:1000F000E7010008E7010008E7010008E701000840
:10010000E7010008E7010008E7010008E70100082F
:10011000E7010008E7010008E7010008E70100081F
:10012000E7010008E7010008E7010008E70100080F
:1001300000F002F800F03AF80AA090E8000C8244BF
:100140008344AAF10107DA4501D100F02FF8AFF29C
:10015000090EBAE80F0013F0010F18BFFB1A43F0A5
:10016000010318476C0A00008C0A0000103A24BFF3
:1001700078C878C1FAD8520724BF30C830C144BF0C
:1001800004680C607047000000230024002500264E
:10019000103A28BF78C1FBD8520728BF30C148BFEA
:1001A0000B6070471FB51FBD10B510BD00F033F8D0
:1001B0001146FFF7F7FF00F0DBFA00F051F803B447
:1001C000FFF7F2FF03BC00F05CFA0000094880472B
:1001D00009480047FEE7FEE7FEE7FEE7FEE7FEE729
:1001E000FEE7FEE7FEE7FEE704480549054A064B41
:1001F0007047000039050008310100085002002056
:100200005008002050040020500400207047704720
:10021000704770477047754600F02CF8AE460500F1
:100220006946534620F00700854618B020B5FFF711
:10023000DBFFBDE820404FF000064FF000074FF015
:1002400000084FF0000B21F00701AC46ACE8C009F4
:10025000ACE8C009ACE8C009ACE8C0098D467047FD
:1002600010B50446AFF300802046BDE81040FFF70C
:10027000A6BF000000487047F001002000BFFEE765
:1002800070472DE9F041024600250026002000239A
:100290000024002791F803C00CF00F0591F803C06B
:1002A0000CF0100CBCF1000F03D091F802C04CEA26
:1002B000050591F800C0BCF1000F31D01468002092
:1002C0002BE04FF0010C0CFA00F3B1F800C00CEA7F
:1002D00003069E4220D183004FF00F0C0CFA03F767
:1002E000BC4305FA03FC4CEA040491F803C0BCF1DA
:1002F000280F06D14FF0010C0CFA00FCC2F814C014
:100300000AE091F803C0BCF1480F05D14FF0010C91
:100310000CFA00FCC2F810C0401C0828D1D31460AD
:10032000B1F800C0BCF1FF0F34DD546800202EE0AE
:1003300000F1080C4FF0010808FA0CF3B1F800C006
:100340000CEA03069E4221D183004FF00F0C0CFAF9
:1003500003F7BC4305FA03FC4CEA040491F803C01C
:10036000BCF1280F05D100F1080C08FA0CF8C2F80E
:10037000148091F803C0BCF1480F07D100F1080CBC
:100380004FF0010808FA0CF8C2F81080401C082849
:10039000CED35460BDE8F0810161704700BFFEE735
:1003A00008B50121482000F025F82020ADF8000014
:1003B00010208DF8030003208DF8020069460948DB
:1003C000FFF75FFF20210748FFF7E6FF2020ADF889
:1003D000000069460448FFF754FF20210248FFF758
:1003E000DBFF08BD000C01400018014000BFFEE724
:1003F0007047704729B1064A92690243044B9A61DB
:1004000004E0034A92698243014B9A6170470000FD
:1004100000100240704710B500F002F810BD000057
:100420000CB50020019000903348006840F4803003
:100430003149086000BF3048006800F40030009087
:100440000198401C0190009818B90198B0F5A06F70
:10045000F1D12948006800F4003010B1012000906B
:1004600001E0002000900098012843D12348006853
:1004700040F01000214908600846006820F00300A1
:1004800008600846006840F0020008601A484068AA
:10049000194948600846406848600846406840F48A
:1004A000806048600846406820F47C104860084638
:1004B000406840F4E81048600846006840F08070EA
:1004C000086000BF0C48006800F000700028F9D0F8
:1004D0000948406820F00300074948600846406822
:1004E00040F00200486000BF0348406800F00C0084
:1004F0000828F9D10CBD0000001002400020024085
:10050000042808D14FF0E021096941F004014FF0BF
:10051000E022116107E04FF0E021096921F00401B8
:100520004FF0E0221161704710B500F03FFA01284A
:1005300001D000F021FA10BD10B51348006840F05A
:1005400001001149086008464068104908400E49FA
:100550004860084600680E4908400B490860084694
:10056000006820F4802008600846406820F4FE00FF
:1005700048604FF41F008860FFF74DFF4FF00060A8
:100580000449086010BD0000001002400000FFF8A0
:10059000FFFFF6FE08ED00E010B540F225511D48C2
:1005A00000F03EF810B31B4800F064F8C4B21A48DB
:1005B000008800F40040C8B91748008800F4804063
:1005C00060B10A2C03D000201349088020E01248B3
:1005D000008840F400401049088019E00D2C06D135
:1005E0000D48008840F480400B49088010E00A481C
:1005F0000088C0F30D0009490C5407480088401CCE
:100600000549088008460088C72801DD00200880C9
:1006100010BD0000003801401C00002060000020D8
:1006200070B50246002400230025002040F66A161B
:10063000B14200D100BFC1F3421501F01F030126F2
:1006400006FA03F3012D02D19689334006E0022D0C
:1006500002D1168A334001E0968A33400C120126FB
:1006600006FA04F41688344013B10CB1012000E0FE
:10067000002070BD01468888C0F30800704700BFA5
:10068000FEE7014600BF704710B50420FFF738FFB2
:10069000104800681049B0FBF1F0104908700D488F
:1006A00000680D49B0FBF1F44FF47A704443012027
:1006B0000B4908804FF0E020006940F002004FF045
:1006C000E021086108464461006940F001000861CA
:1006D00010BD00000000002040420F001400002068
:1006E0001600002070B5044600F060F9012811D012
:1006F0000C480088844206DB0A48008894FBF0F529
:10070000284600F017F90748008894FBF0F100FB39
:10071000114084B24FF47A7104FB01F000F004F848
:1007200070BD00001600002070B5034600224FF097
:10073000E02675690D4E367803FB06F44FF0E0268F
:10074000B16910E04FF0E026B06988420BD08842D2
:1007500002D20E1A324402E02E1A0E4432440146EE
:10076000A24200D300E0EDE700BF70BD14000020FE
:10077000FFF78AFFFFF714FE15E000200A49086022
:1007800001200A49C1F894014FF49670FFF7AAFFBF
:1007900001200549086000200449C1F894014FF484
:1007A0009670FFF79FFFE8E7948121420000234203
:1007B0002DE9F04105460E461C4807681C480068B4
:1007C000001D00F05BF850B91948006890F82C1033
:1007D0000120884017490968814316480160681C58
:1007E00038B936B112480168091D134800F074F891
:1007F0001AE07C190E4800684460BC4207D20C48DD
:100800000168091D0D48006800F04CF80CE008482C
:100810000168091D0A48006800F044F809480068AA
:10082000844201D207480460BDE8F0813400002012
:100830002000002038000020DC01002028000020DB
:1008400024000020500000200A490968096809B9FD
:10085000012100E0002121B14FF0FF31064A116073
:1008600006E004490968C968C868034A416811601C
:1008700070470000240000205000002001460A6953
:10088000D1E901309860D1E901035860506888428D
:1008900001D188685060002008611068401E106017
:1008A0001068704710B502460B685C1C0CB91069E3
:1008B00007E002F1080000E04068446824689C42B8
:1008C000FAD944684C604C68A160886041600A6154
:1008D0001468641C146010BD42684A6093688B60A1
:1008E000936859609160086103685B1C03607047FE
:1008F00000BFBF2080F31188BFF34F8FBFF36F8F0E
:1009000000BF03480068401C0149086070470000B0
:100910005C00002006480068401E05490860084643
:10092000006820B9002080F3118800BF00BF704725
:100930005C00002070B50446002544B100F014F8B6
:1009400000212046FFF734FF00F0CEF805463DB900
:100950004FF0805003490860BFF34F8FBFF36F8F94
:1009600070BD000004ED00E002480068401C014931
:10097000086070475800002010B500BFBF2080F30A
:100980001188BFF34F8FBFF36F8F00BF00F01EF8C9
:1009900018B14FF080500449086000BF002080F378
:1009A000118800BF10BD000004ED00E00549096892
:1009B00009B9012005E00449096809B9022000E0ED
:1009C000002070473C000020580000202DE9F04135
:1009D00000273A480068002863D139480068451C60
:1009E000374805608DB93748D0F800803648006830
:1009F000344908603448C0F8008034480068401C1E
:100A000032490860FFF720FF00BF31480068854287
:100A10003BD300BF2B480068006808B9012000E004
:100A2000002020B14FF0FF30294908602CE0254814
:100A30000068C068C4686668B54202D2244806608F
:100A400022E0201DFFF71AFFA06A18B104F1180078
:100A5000FFF714FF94F82C10012088401D49096805
:100A600008431C490860E16A01EB81011A4A02EB64
:100A70008100211DFFF730FF1849E06A0968C96A43
:100A80008842C7D30127C5E700BF14480068C06A81
:100A900000EB8000104951F82000012800D90127FF
:100AA00004E00F480068401C0D4908600D480068CC
:100AB00000B101273846BDE8F08100005800002051
:100AC00034000020240000202800002048000020DE
:100AD00050000020380000202801002020000020C5
:100AE000400000204400002070B500240026FFF7DD
:100AF000FFFE2E480068401E2C490860084600682A
:100B000000284FD12A48006800284BD024E029480B
:100B1000C068C46804F11800FFF7B0FE201DFFF79D
:100B2000ADFE94F82C100120884023490968084341
:100B300021490860E16A01EB8101204A02EB810052
:100B4000211DFFF7C9FE1E49E06A0968C96A88428B
:100B500002D301201B4908601648006808B901202B
:100B600000E000200028D2D00CB1FFF76DFE16483F
:100B7000056865B100BFFFF729FF10B101201149D9
:100B800008606D1E002DF6D100200F4908600D4849
:100B9000006838B1012630070C490860BFF34F8F59
:100BA000BFF36F8FFFF7B6FE304670BD58000020D0
:100BB00030000020B401002038000020280100206F
:100BC00020000020440000204000002004ED00E050
:100BD000F00B000800000020600000006C0100081D
:100BE000500C000860000020F00700008801000899
:100BF00000A24A04000000000000000001020304FB
:100C000006070809000000000000000000000000C6
:100C100000000000000000000000000000000000D4
:100C200000000000000000000000000000000000C4
:100C300000000000000000000000000000000000B4
:100C4000000000000000000000000000AAAAAAAAFC
:04000005080001CD21
:00000001FF
