:020000040800F2
:10000000884C002065020008D50400083904000867
:10001000D104000815030008E309000800000000EF
:10002000000000000000000000000000CD010008FA
:10003000190300080000000011020008D513000891
:100040007F0200087F0200087F0200087F0200088C
:100050007F0200087F0200087F0200087F0200087C
:100060007F0200087F0200087F0200087F0200086C
:100070007F0200087F0200087F0200087F0200085C
:100080007F0200087F0200087F0200087F0200084C
:100090007F0200087F0200087F0200087F0200083C
:1000A0007F0200087F0200087F0200087F0200082C
:1000B0007F0200087F0200087F0200087F0200081C
:1000C0007F0200087F0200087F0200087F0200080C
:1000D0007F020008C10700087F0200087F020008B5
:1000E0007F0200087F0200087F0200087F020008EC
:1000F0007F0200087F0200087F0200087F020008DC
:100100007F0200087F0200087F0200087F020008CB
:100110007F0200087F0200087F0200087F020008BB
:100120007F0200087F0200087F0200087F020008AB
:1001300000F002F800F03AF80AA090E8000C8244BF
:100140008344AAF10107DA4501D100F02FF8AFF29C
:10015000090EBAE80F0013F0010F18BFFB1A43F0A5
:10016000010318470815000028150000103A24BFA5
:1001700078C878C1FAD8520724BF30C830C144BF0C
:1001800004680C607047000000230024002500264E
:10019000103A28BF78C1FBD8520728BF30C148BFEA
:1001A0000B6070471FB51FBD10B510BD00F07FF884
:1001B0001146FFF7F7FF00F047FC00F09DF803B48D
:1001C000FFF7F2FF03BC00F00EFC0000224B1968A1
:1001D0000868B0E8F00F80F30988BFF36F8F4FF025
:1001E000000080F311884EF00D0E704700000000F3
:1001F00006480068006880F3088862B661B6BFF3FD
:100200004F8FBFF36F8F00DF00BF00BF08ED00E02E
:10021000EFF30980BFF36F8F0F4B1A6820E9F00FDF
:10022000106008B54FF0BF0080F31188BFF34F8F07
:10023000BFF36F8F01F084F84FF0000080F3118856
:10024000BDE8084019680868B0E8F00F80F3098835
:10025000BFF36F8F704700BF40000020EFF30580B1
:10026000704700000948804709480047FEE7FEE75D
:10027000FEE7FEE7FEE7FEE7FEE7FEE7FEE7FEE756
:1002800004480549054A064B70470000610700080D
:100290003101000888460020884C00208848002052
:1002A0008848002070477047704770477047754610
:1002B00000F02CF8AE4605006946534620F00700D2
:1002C000854618B020B5FFF7DBFFBDE820404FF0B2
:1002D00000064FF000074FF000084FF0000B21F030
:1002E0000701AC46ACE8C009ACE8C009ACE8C009FD
:1002F000ACE8C0098D46704710B50446AFF30080E6
:100300002046BDE81040FFF75ABF00000048704784
:100310002846002000BFFEE770472DE9F041024665
:1003200000250026002000230024002791F803C0A8
:100330000CF00F0591F803C00CF0100CBCF1000F8D
:1003400003D091F802C04CEA050591F800C0BCF159
:10035000000F31D0146800202BE04FF0010C0CFA94
:1003600000F3B1F800C00CEA03069E4220D18300DE
:100370004FF00F0C0CFA03F7BC4305FA03FC4CEAF0
:10038000040491F803C0BCF1280F06D14FF0010C12
:100390000CFA00FCC2F814C00AE091F803C0BCF1EA
:1003A000480F05D14FF0010C0CFA00FCC2F810C048
:1003B000401C0828D1D31460B1F800C0BCF1FF0F75
:1003C00034DD546800202EE000F1080C4FF00108E5
:1003D00008FA0CF3B1F800C00CEA03069E4221D1E2
:1003E00083004FF00F0C0CFA03F7BC4305FA03FC33
:1003F0004CEA040491F803C0BCF1280F05D100F1C8
:10040000080C08FA0CF8C2F8148091F803C0BCF18B
:10041000480F07D100F1080C4FF0010808FA0CF85A
:10042000C2F81080401C0828CED35460BDE8F0818B
:10043000416170470161704700BFFEE708B50121C7
:10044000482000F08BF82020ADF8000010208DF837
:10045000030003208DF8020069460948FFF75DFF9D
:1004600020210748FFF7E6FF2020ADF8000069468D
:100470000448FFF752FF20210248FFF7D9FF08BDCB
:10048000000C01400018014009E005480068C04325
:100490000449C1F894014FF4FA7000F097FEF4E7B4
:1004A00094812142008021420DE00020064908602D
:1004B000C82000F08BFE01200449C1F894014FF4DC
:1004C000487000F083FEF0E79401234200002342CD
:1004D00000BFFEE77047000070B5002100230F2227
:1004E000C47804B3154C246804F4E064C4F5E064F3
:1004F000210AC1F10403CA40447804FA03F1847864
:100500001440214309010E4C0678A155047804F0EB
:100510001F050124AC4005786D11AD0005F1E02503
:10052000C5F8004109E0047804F01F050124AC403F
:10053000044D0678761145F8264070BD0CED00E0BC
:1005400000E400E080E100E002490143024A11605A
:10055000704700000000FA050CED00E029B1064AE2
:1005600092690243044B9A6104E0034A9269824310
:10057000014B9A61704700000010024030B5002125
:100580000022002400232D4D6D6805F00C0121B1DF
:10059000042905D0082923D105E0294D056022E072
:1005A000274D05601FE0254D6D6805F47012234D41
:1005B0006D6805F48034022505EB92421CB9214D8B
:1005C000554305600BE01D4D6D6805F400351DB108
:1005D0001C4D5543056002E0194D5543056002E08E
:1005E000174D056000BF00BF144D6D6805F0F001A8
:1005F0000909154D6B5C0568DD4045600F4D6D6860
:1006000005F4E061090A104D6B5C4568DD408560CA
:100610000A4D6D6805F46051C90A0B4D6B5C456865
:10062000DD40C560054D6D6805F44041890B074DFF
:100630006B5CC568B5FBF3F5056130BD0010024089
:1006400000127A0000093D002A0000203A00002034
:1006500010B500F001F810BD0CB50020019000901D
:100660003348006840F480303149086000BF3048AA
:10067000006800F4003000900198401C0190009840
:1006800018B90198B0F5A06FF1D12948006800F4BD
:10069000003010B10120009001E00020009000988F
:1006A000012843D12348006840F010002149086028
:1006B0000846006820F0030008600846006840F023
:1006C000020008601A4840681949486008464068B6
:1006D00048600846406840F48060486008464068CA
:1006E00020F47C1048600846406840F4E8104860F8
:1006F0000846006840F08070086000BF0C48006841
:1007000000F000700028F9D00948406820F003008C
:10071000074948600846406840F00200486000BF52
:100720000348406800F00C000828F9D10CBD000017
:100730000010024000200240042808D14FF0E021C0
:10074000096941F004014FF0E022116107E04FF028
:10075000E021096921F004014FF0E02211617047A6
:1007600010B51348006840F00100114908600846C0
:100770004068104908400E494860084600680E4924
:1007800008400B4908600846006820F48020086093
:100790000846406820F4FE0048604FF41F0088605F
:1007A000FFF756FF4FF000600449086010BD0000DD
:1007B000001002400000FFF8FFFFF6FE08ED00E029
:1007C00010B540F225511D4800F04AF810B31B48FF
:1007D00000F002F9C4B21A48008800F40040C8B919
:1007E0001748008800F4804060B10A2C03D0002034
:1007F0001349088020E01248008840F40040104966
:10080000088019E00D2C06D10D48008840F4804086
:100810000B49088010E00A480088C0F30D00094920
:100820000C5407480088401C054908800846008889
:10083000C72801DD0020088010BD000000380140FD
:10084000280000209800002021B1828942F4005243
:10085000828104E082894DF6FF731A4082817047DD
:1008600070B50246002400230025002040F66A16D9
:10087000B14200D100BFC1F3421501F01F030126B0
:1008800006FA03F3012D02D19689334006E0022DCA
:1008900002D1168A334001E0968A33400C120126B9
:1008A00006FA04F41688344013B10CB1012000E0BC
:1008B000002070BDF0B5034600240026002500206E
:1008C00040F66A17B94200D100BF1846C1F342147E
:1008D00001F01F06012707FA06F5012C01D10C30A3
:1008E00004E0022C01D1103000E014301AB1076886
:1008F0002F43076002E00768AF430760F0BD0000C8
:100900002DE9F04786B005460E460024A24600BFFA
:10091000A1460027B08900B100BF2F462C8A4CF6B3
:10092000FF700440F08804432C82AC894EF6F3102B
:100930000440B08831890843718908430443AC817D
:10094000AC8A4FF6FF400440B0890443AC8201A852
:10095000FFF714FE1F48874202D1DDF810A001E026
:10096000DDF80CA0A88900F4004040B10AEBCA00F1
:1009700000EB0A1031684900B0FBF1F807E00AEB20
:10098000CA0000EB0A1031688900B0FBF1F864205E
:10099000B8FBF0F004012009642101FB1089A8894B
:1009A00000F4004040B1322000EBC900B0FBF1F090
:1009B00000F00700044308E0322000EB0910642136
:1009C000B0FBF1F000F00F0004432C8106B0BDE84D
:1009D000F08700000038014001468888C0F3080015
:1009E000704700BFFEE7014600BF704710B5042006
:1009F000FFF7A2FE104800681049B0FBF1F0104963
:100A000008700D4800680D49B0FBF1F44FF47A709E
:100A1000444301200B4908804FF0E020006940F07A
:100A200002004FF0E021086108464461006940F08F
:100A30000100086110BD00000C00002040420F00C2
:100A400020000020220000201CB54FF44070FFF76A
:100A50007BFDFFF7CBFF4FF4E13000F0CDFAFFF75D
:100A6000EDFC0748012100234A02CDE9001005A151
:100A7000074800F0C9FC00F029FC00201CBD000064
:100A80000000002053746172745F7461736B000026
:100A90008D0F00082DE9F04105460E461C480768F9
:100AA0001C480068001D00F0F7FA50B919480068AA
:100AB00090F82C1001208840174909688143164896
:100AC0000160681C38B936B112480168091D134825
:100AD00000F020FB1AE07C190E4800684460BC421C
:100AE00007D20C480168091D0D48006800F0F8FAAB
:100AF0000CE008480168091D0A48006800F0F0FA97
:100B000009480068844201D207480460BDE8F081CA
:100B10005400002040000020580000201402002053
:100B200048000020440000207000002010B504465A
:100B300000F0FCFA23480068401C22490860224863
:100B4000006840B9204804600846006801280DD1BB
:100B500000F014F90AE01D48006838B91A48006826
:100B6000C06AE16A884201D81748046018480068E2
:100B7000401C1749086094F82C1001208840154942
:100B80000968084313490860E16A01EB8101124AD0
:100B900002EB8100211D00F0BDFA00F0D9FA0B48EC
:100BA000006868B108480068C06AE16A884207D2F4
:100BB0004FF0805009490860BFF34F8FBFF36F8F2C
:100BC00010BD000050000020400000205C0000200C
:100BD0006C000020580000206001002004ED00E0BF
:100BE00070B523E000F0A4FB1348006808B90120A9
:100BF00000E00020054600F0C5FCBDB900F096FA03
:100C00000D48C068C468201D00F046FA0B48006813
:100C1000401E0A4908600A480068401E08490860EA
:100C200000F096FA204600F00DF800BF0448006876
:100C30000028D7D170BD0000000200205000002025
:100C40004C00002010B50446206B00F091FA2046BD
:100C500000F08EFA10BD000030B54FF488431748FD
:100C600000F007042CB1C01D20F00700134C041B3A
:100C70001B1B0246124C22600024114D6C60D018E0
:100C8000083820F007000F4C206000240D4D2D681F
:100C90006C600C4D2D682C601146441A4C60094C58
:100CA00024680C60084D4C682C60084D4C682C6022
:100CB0004FF00044064D2C6030BD0000280200209B
:100CC0007C000020840000208C0000208800002090
:100CD0009000002000BFFFF783FF0648006801284E
:100CE000F9D94FF0805004490860BFF34F8FBFF32C
:100CF0006F8FF0E76001002004ED00E02DE9FF5F59
:100D000080460E469146DDE90E7A109CA9F101005D
:100D1000216B01EB800B2BF0070B002507E0715DC9
:100D200004F134004155705D00B902E06D1C102DD6
:100D3000F5D300BF002143200155052F00D3042720
:100D4000E762201D00F0C9F904F1180000F0C5F9B0
:100D50002461C7F10500A06164620020606484F82A
:100D6000480041465846039A00F0FEF82060BAF168
:100D7000000F01D0CAF80040BDE8FF9F10B5002465
:100D800007E004EB84010F4A02EB810000F098F9C0
:100D9000641C052CF5D30C4800F092F90B4800F0C8
:100DA0008FF90B4800F08CF90A4800F089F90A48DD
:100DB00000F086F9044809490860044808490860B9
:100DC00010BD000060010020C4010020D8010020F7
:100DD000EC0100200002002014020020440000204A
:100DE0004800002010B50146164800E0006803687E
:100DF0008B42FBD30246436813448B4204D14368C1
:100E00004C682344436001460A464B681344046817
:100E1000A34211D10C4C03682468A34208D04B684C
:100E20000468646823444B6003681B680B6005E03A
:100E3000054B1B680B6001E003680B60884200D023
:100E4000016010BD7C000020840000200A49096870
:100E5000096809B9012100E0002121B14FF0FF31FB
:100E6000064A116006E004490968C968C868034A6F
:100E700041681160704700004400002070000020AD
:100E800000BFBF2080F31188BFF34F8FBFF36F8F78
:100E900000BF00BFFEE700002DE9F04105464FF01E
:100EA000000800F045FA2B48006808B9FFF7D4FEA7
:100EB000294800682840002847D145B1083505F089
:100EC000070020B105F00700C0F108000544002D1F
:100ED0003BD022480068854237D8214E304604680E
:100EE00001E0264624686068A84202D220680028F3
:100EF000F7D118480068844227D0306800F108080C
:100F0000206830606068401B102807D96719606846
:100F1000401B786065603846FFF764FF0F496068E2
:100F20000968081A0D490860084600680D490968F3
:100F3000884203D2094800680A4908600649606887
:100F40000968084360600020206000F01BFB4046F9
:100F5000BDE8F0818400002090000020880000207F
:100F60007C0000208C000020001F4FF08073036085
:100F7000001F21F001030360001F034B03601438BE
:100F80000260203870470000810E00081CB504463E
:100F900000F0CCF80D48022100233222CDE90010E8
:100FA0000BA10E4800F030FA0D4803210023322235
:100FB000CDE900100BA10E4800F026FA0D4800689C
:100FC00000F01EF900F0C4F81CBD00000400002071
:100FD0004C6564305F7461736B0000008904000825
:100FE000080000204C6564315F7461736B00000081
:100FF000A90400080000002010B586B004460121B5
:1010000044F20400FFF7AAFA4FF40070ADF81400A0
:1010100003208DF8160018208DF8170005A91C482C
:10102000FFF77BF94FF48060ADF8140004208DF8D1
:10103000170005A91648FFF770F925208DF8000064
:1010400003208DF801008DF8020001208DF80300C7
:101050006846FFF741FA01940020ADF80800ADF8AA
:101060000A00ADF80C00ADF810000C20ADF80E0031
:1010700001A90848FFF744FC012240F22551054828
:10108000FFF718FC01210348FFF7DEFB06B010BD97
:10109000000801400038014001460A69D1E90130E9
:1010A0009860D1E9010358605068884201D188688E
:1010B0005060002008611068401E10601068704782
:1010C00000F1080141604FF0FF31816000F108013B
:1010D000C16001610021016070470021016170471A
:1010E00010B502460B685C1C0CB9106907E002F1F0
:1010F000080000E04068446824689C42FAD94468CB
:101100004C604C68A160886041600A611468641C8E
:10111000146010BD42684A6093688B6093685960A0
:101120009160086103685B1C0360704700BFBF20CB
:1011300080F31188BFF34F8FBFF36F8F00BF034859
:101140000068401C014908607047000094000020BE
:1011500006480068401E054908600846006820B936
:10116000002080F3118800BF00BF7047940000206A
:1011700070B506463546D6B1083D2C460C49606828
:101180000968084098B1206888B909496068096809
:101190008843606000F0CCF806496068096808443C
:1011A000044908602046FFF71DFE00F0EBF970BD12
:1011B000900000208800002003484FF0E0214861A3
:1011C00007200861704700003F19010070B5044610
:1011D000002544B100F0ACF800212046FFF75AFC8E
:1011E00000F0D0F905463DB94FF080500349086042
:1011F000BFF34F8FBFF36F8F70BD000004ED00E0B1
:1012000070B50546FFF792FF15B92748006800E062
:1012100028460446201DFFF73FFF78B9E06A00EB3F
:101220008000224951F8200040B994F82C10012088
:1012300088401F49096881431D480160A06A18B1B0
:1012400004F11800FFF728FF1A480068401C1949EC
:10125000086015480068844209D1211D1648FFF72F
:1012600059FF16480068401C1449086009E01448FA
:101270000068401E124908602046FFF7E3FCFFF7B4
:10128000E5FDFFF765FF0F48006858B106480068A4
:10129000844207D14FF080500B490860BFF34F8F55
:1012A000BFF36F8F70BD0000400000206001002080
:1012B000580000206C000020000200204C0000209C
:1012C000500000205C00002004ED00E01CB5114837
:1012D00000210B468022CDE900100FA1104800F03C
:1012E00093F80446012C14D100BFBF2080F311886D
:1012F000BFF34F8FBFF36F8F00BF4FF0FF3009492F
:10130000086001200849086000200849086000F0D2
:1013100047F81CBD7400002049444C450000000003
:10132000D50C0008700000205C0000205400002054
:1013300002480068401C014908607047780000209E
:101340001248006818B10120114908601DE0002012
:101350000F4908600F480068B0FA80F0C0F11F0123
:1013600001EB81020C4B03EB820042685268426041
:1013700000F108024368934202D142685268426019
:101380004268D268054B1A6000BF704778000020A1
:101390006400002058000020600100204000002070
:1013A00010B50A48006840F47F0008490860084604
:1013B000006840F07F400860FFF7FEFE002004490F
:1013C0000860FEF715FF002010BD000020ED00E0D2
:1013D0009400002010B500BFBF2080F31188BFF338
:1013E0004F8FBFF36F8F00BF00F03EF818B14FF082
:1013F00080500449086000BF002080F3118800BFBE
:1014000010BD000004ED00E02DE9FF4F85B08046DF
:1014100089461746DDE912ABB800FFF73DFD0646E9
:1014200056B14C20FFF738FD04460CB1266304E0AA
:101430003046FFF79DFE00E000247CB10020CDE99E
:1014400000ABCDE902403A4649464046089BFFF7CB
:1014500055FC2046FFF76AFB012501E04FF0FF3500
:10146000284609B0BDE8F08F2DE9F04100273A4841
:101470000068002863D139480068451C374805607A
:101480008DB93748D0F80080364800683449086084
:101490003448C0F8008034480068401C3249086075
:1014A000FFF7D4FC00BF3148006885423BD300BF42
:1014B0002B480068006808B9012000E0002020B136
:1014C0004FF0FF30294908602CE025480068C068CB
:1014D000C4686668B54202D22448066022E0201D36
:1014E000FFF7DAFDA06A18B104F11800FFF7D4FD88
:1014F00094F82C10012088401D49096808431C49B4
:101500000860E16A01EB81011A4A02EB8100211DAA
:10151000FFF700FE1849E06A0968C96A8842C7D324
:101520000127C5E700BF14480068C06A00EB8000CF
:10153000104951F82000012800D9012704E00F4884
:101540000068401C0D4908600D48006800B1012783
:101550003846BDE8F08100007800002054000020EB
:101560004400002048000020680000207000002097
:101570005800002060010020400000206000002092
:101580006400002070B500240026FFF7CFFD2E4830
:101590000068401E2C4908600846006800284FD1AA
:1015A0002A48006800284BD024E02948C068C46855
:1015B00004F11800FFF770FD201DFFF76DFD94F892
:1015C0002C100120884023490968084321490860FC
:1015D000E16A01EB8101204A02EB8100211DFFF746
:1015E00099FD1E49E06A0968C96A884202D3012050
:1015F0001B4908601648006808B9012000E0002077
:101600000028D2D00CB1FFF721FC1648056865B15F
:1016100000BFFFF729FF10B10120114908606D1EBE
:10162000002DF6D100200F4908600D48006838B140
:10163000012630070C490860BFF34F8FBFF36F8F4F
:10164000FFF786FD304670BD780000205000002076
:10165000EC01002058000020600100204000002024
:10166000640000206000002004ED00E08C160008FB
:1016700000000020980000006C01000824170008FA
:1016800098000020F04B00008801000800000000D6
:10169000000000000000000000A24A04000000005A
:1016A0000000000001020304060708090000000012
:1016B000000000000000000000000102030401021D
:1016C00003040607080902040608000000000000E1
:1016D000000000000000000000000000000000000A
:1016E00000000000000000000000000000000000FA
:1016F00000000000000000000000000000000000EA
:1017000000000000000000000000000000000000D9
:1017100000000000000000000000000000000000C9
:04172000AAAAAAAA1D
:040000050800026588
:00000001FF
