:020000040800F2
:10000000984C00206502000875050008D50400081A
:1000100071050008B5030008F70A00080000000099
:10002000000000000000000000000000CD010008FA
:10003000B9030008000000001102000805180008BC
:100040007F0200087F0200087F0200087F0200088C
:100050007F0200087F0200087F0200087F0200087C
:100060007F0200087F0200087F0200087F0200086C
:100070007F0200087F0200087F0200087F0200085C
:100080007F0200087F0200087F0200087F0200084C
:100090007F0200087F0200087F0200087F0200083C
:1000A0007F0200087F0200087F0200087F0200082C
:1000B0007F0200087F0200087F0200087F0200081C
:1000C0007F0200087F0200087F0200087F0200080C
:1000D0007F020008D50800087F0200087F020008A0
:1000E0007F0200087F0200087F0200087F020008EC
:1000F0007F0200087F0200087F0200087F020008DC
:100100007F0200087F0200087F0200087F020008CB
:100110007F0200087F0200087F0200087F020008BB
:100120007F0200087F0200087F0200087F020008AB
:1001300000F002F800F03AF80AA090E8000C8244BF
:100140008344AAF10107DA4501D100F02FF8AFF29C
:10015000090EBAE80F0013F0010F18BFFB1A43F0A5
:1001600001031847C0190000E0190000103A24BF2D
:1001700078C878C1FAD8520724BF30C830C144BF0C
:1001800004680C607047000000230024002500264E
:10019000103A28BF78C1FBD8520728BF30C148BFEA
:1001A0000B6070471FB51FBD10B510BD00F0D0F833
:1001B0001146FFF7F7FF00F007FD00F0EEF803B47B
:1001C000FFF7F2FF03BC00F098FC0000224B196817
:1001D0000868B0E8F00F80F30988BFF36F8F4FF025
:1001E000000080F311884EF00D0E704700000000F3
:1001F00006480068006880F3088862B661B6BFF3FD
:100200004F8FBFF36F8F00DF00BF00BF08ED00E02E
:10021000EFF30980BFF36F8F0F4B1A6820E9F00FDF
:10022000106008B54FF0BF0080F31188BFF34F8F07
:10023000BFF36F8F01F09CFA4FF0000080F311883C
:10024000BDE8084019680868B0E8F00F80F3098835
:10025000BFF36F8F704700BF50000020EFF30580A1
:10026000704700000948804709480047FEE7FEE75D
:10027000FEE7FEE7FEE7FEE7FEE7FEE7FEE7FEE756
:1002800004480549054A064B7047000075080008F8
:100290003101000898460020984C00209848002022
:1002A00098480020704702F0FF0343EA032242EA25
:1002B000024200F006B870477047704770474FF031
:1002C00000020429C0F0128010F0030C00F01B8023
:1002D000CCF1040CBCF1020F18BF00F8012BA8BF31
:1002E00020F8022BA1EB0C0100F00DB85FEAC17CF5
:1002F00024BF00F8012B00F8012B48BF00F8012BA8
:1003000070474FF0000200B51346944696462039D8
:1003100022BFA0E80C50A0E80C50B1F12001BFF4BE
:10032000F7AF090728BFA0E80C5048BF0CC05DF824
:1003300004EB890028BF40F8042B08BF704748BF72
:1003400020F8022B11F0804F18BF00F8012B7047E6
:10035000754600F02BF8AE4605006946534620F07E
:100360000700854618B020B5FFF78AFFBDE820409A
:100370004FF000064FF000074FF000084FF0000B61
:1003800021F00701AC46ACE8C009ACE8C009ACE814
:10039000C009ACE8C0098D46704710B50446AFF3FC
:1003A00000802046BDE81040FFF709BF00487047B5
:1003B0003846002000BFFEE770472DE9F0410246B5
:1003C00000250026002000230024002791F803C008
:1003D0000CF00F0591F803C00CF0100CBCF1000FED
:1003E00003D091F802C04CEA050591F800C0BCF1B9
:1003F000000F31D0146800202BE04FF0010C0CFAF4
:1004000000F3B1F800C00CEA03069E4220D183003D
:100410004FF00F0C0CFA03F7BC4305FA03FC4CEA4F
:10042000040491F803C0BCF1280F06D14FF0010C71
:100430000CFA00FCC2F814C00AE091F803C0BCF149
:10044000480F05D14FF0010C0CFA00FCC2F810C0A7
:10045000401C0828D1D31460B1F800C0BCF1FF0FD4
:1004600034DD546800202EE000F1080C4FF0010844
:1004700008FA0CF3B1F800C00CEA03069E4221D141
:1004800083004FF00F0C0CFA03F7BC4305FA03FC92
:100490004CEA040491F803C0BCF1280F05D100F127
:1004A000080C08FA0CF8C2F8148091F803C0BCF1EB
:1004B000480F07D100F1080C4FF0010808FA0CF8BA
:1004C000C2F81080401C0828CED35460BDE8F081EB
:1004D0000161704700BFFEE708B50121482000F028
:1004E000C7F82020ADF8000010208DF8030003208D
:1004F0008DF8020069460948FFF75FFF2021074891
:10050000FFF7E6FF2020ADF8000069460448FFF73A
:1005100054FF20210248FFF7DBFF08BD000C01401B
:100520000018014000BF09E005480068C0430549C4
:10053000C1F894014FF4FA7001F026F8F4E70000D6
:1005400094812142008021420DE00020064908608C
:10055000C82001F019F801200449C1F894014FF4B2
:10056000487001F011F8F0E79401234200002342A3
:1005700000BFFEE77047000070B5002100230F2286
:10058000C47804B3154C246804F4E064C4F5E06452
:10059000210AC1F10403CA40447804FA03F18478C3
:1005A0001440214309010E4C0678A155047804F04B
:1005B0001F050124AC4005786D11AD0005F1E02563
:1005C000C5F8004109E0047804F01F050124AC409F
:1005D000044D0678761145F8264070BD0CED00E01C
:1005E00000E400E080E100E002490143024A1160BA
:1005F000704700000000FA050CED00E008B527E0A8
:100600001448006800F028FF1349086000F0C6FE97
:1006100012490860096801EBC101880000F096FDED
:1006200004466A460D480168204600F0BDFE0CA055
:1006300001F032F901F06EF905460C48037800220A
:100640002146284601F020F84FF4FA6000F09CFFA4
:10065000D6E7000004000020100000201400002055
:100660004C6564305F7461736B00000018000020FB
:1006700029B1064A92690243044B9A6104E0034A95
:1006800092698243014B9A6170470000001002405A
:1006900030B500210022002400232D4D6D6805F0A7
:1006A0000C0121B1042905D0082923D105E0294DE9
:1006B000056022E0274D05601FE0254D6D6805F4BB
:1006C0007012234D6D6805F48034022505EB9242CB
:1006D0001CB9214D554305600BE01D4D6D6805F4B7
:1006E00000351DB11C4D5543056002E0194D5543C1
:1006F000056002E0174D056000BF00BF144D6D6836
:1007000005F0F0010909154D6B5C0568DD40456099
:100710000F4D6D6805F4E061090A104D6B5C45688A
:10072000DD4085600A4D6D6805F46051C90A0B4DC6
:100730006B5C4568DD40C560054D6D6805F4404162
:10074000890B074D6B5CC568B5FBF3F5056130BDE2
:100750000010024000127A0000093D003A0000201B
:100760004A00002010B500F001F810BD0CB50020C3
:10077000019000903348006840F4803031490860AF
:1007800000BF3048006800F4003000900198401C21
:100790000190009818B90198B0F5A06FF1D12948DF
:1007A000006800F4003010B10120009001E000204A
:1007B00000900098012843D12348006840F01000C1
:1007C000214908600846006820F0030008600846D8
:1007D000006840F0020008601A4840681949486003
:1007E0000846406848600846406840F480604860B9
:1007F0000846406820F47C1048600846406840F491
:10080000E81048600846006840F08070086000BF4B
:100810000C48006800F000700028F9D009484068D2
:1008200020F00300074948600846406840F0020095
:10083000486000BF0348406800F00C000828F9D168
:100840000CBD00000010024000200240042808D126
:100850004FF0E021096941F004014FF0E0221161FD
:1008600007E04FF0E021096921F004014FF0E02298
:100870001161704710B51348006840F0010011493C
:10088000086008464068104908400E49486008461C
:1008900000680E4908400B4908600846006820F4CB
:1008A000802008600846406820F4FE0048604FF44D
:1008B0001F008860FFF756FF4FF000600449086092
:1008C00010BD0000001002400000FFF8FFFFF6FE20
:1008D00008ED00E010B540F225511D4800F04AF83F
:1008E00010B31B4800F002F9C4B21A48008800F4A3
:1008F0000040C8B91748008800F4804060B10A2C55
:1009000003D000201349088020E01248008840F4FA
:1009100000401049088019E00D2C06D10D480088D0
:1009200040F480400B49088010E00A480088C0F37A
:100930000D0009490C5407480088401C05490880EF
:1009400008460088C72801DD0020088010BD00008F
:100950000038014038000020A800002021B1828921
:1009600042F40052828104E082894DF6FF731A40FE
:100970008281704770B502460024002300250020C4
:1009800040F66A16B14200D100BFC1F3421501F032
:100990001F03012606FA03F3012D02D19689334085
:1009A00006E0022D02D1168A334001E0968A3340D8
:1009B0000C12012606FA04F41688344013B10CB167
:1009C000012000E0002070BDF0B5034600240026A1
:1009D0000025002040F66A17B94200D100BF184632
:1009E000C1F3421401F01F06012707FA06F5012C96
:1009F00001D10C3004E0022C01D1103000E01430A1
:100A00001AB107682F43076002E00768AF43076029
:100A1000F0BD00002DE9F04786B005460E460024E3
:100A2000A24600BFA1460027B08900B100BF2F46F3
:100A30002C8A4CF6FF700440F08804432C82AC8969
:100A40004EF6F3100440B088318908437189084399
:100A50000443AC81AC8A4FF6FF400440B0890443A4
:100A6000AC8201A8FFF714FE1F48874202D1DDF8CF
:100A700010A001E0DDF80CA0A88900F4004040B10E
:100A80000AEBCA0000EB0A1031684900B0FBF1F82C
:100A900007E00AEBCA0000EB0A1031688900B0FBDE
:100AA000F1F86420B8FBF0F004012009642101FB97
:100AB0001089A88900F4004040B1322000EBC90041
:100AC000B0FBF1F000F00700044308E0322000EB37
:100AD00009106421B0FBF1F000F00F0004432C81F9
:100AE00006B0BDE8F0870000003801400146888864
:100AF000C0F30800704700BFFEE7014600BF704723
:100B000010B50420FFF7A2FE104800681049B0FBA2
:100B1000F1F0104908700D4800680D49B0FBF1F480
:100B20004FF47A70444301200B4908804FF0E020D5
:100B3000006940F002004FF0E0210861084644617E
:100B4000006940F00100086110BD00001C00002099
:100B500040420F0030000020320000202DE9F0411B
:100B60000646374613480068874201D100241EE03C
:100B700000F0BAFC7D6900F0C9FC0F4800688542AE
:100B800003D00E480068854201D102240FE00C48D2
:100B9000854205D1B86A08B9032408E0022406E0BA
:100BA0000848854200D00DB9042400E00124204605
:100BB000BDE8F081500000205400002058000020C3
:100BC00024020020100200201CB54FF44070FFF7F3
:100BD0000BFDFFF795FF4FF4E13000F07BFBFFF7D3
:100BE0007BFC0748012100234A02CDE9001005A142
:100BF000074800F021FE00F081FD00201CBD000030
:100C00000000002053746172745F7461736B0000A4
:100C1000411200082DE9F04105460E461C480768C0
:100C20001C480068001D00F0A5FB50B91948006879
:100C300090F82C1001208840174909688143164814
:100C40000160681C38B936B112480168091D1348A3
:100C500000F03EFC1AE07C190E4800684460BC427B
:100C600007D20C480168091D0D48006800F016FC09
:100C70000CE008480168091D0A48006800F00EFCF5
:100C800009480068844201D207480460BDE8F08149
:100C90006400002050000020680000202402002092
:100CA00058000020540000208000002010B50446A9
:100CB00000F01AFC24480068401C234908602348BF
:100CC000006840B9214804600846006801280DD139
:100CD00000F01EF90AE01E48006838B91B48006899
:100CE000C06AE16A884201D818480460194800685F
:100CF000401C1849086008460068606494F82C108D
:100D00000120884014490968084313490860E16AD2
:100D100001EB8101114A02EB8100211D00F0D8FB9B
:100D200000F0F4FB0A48006868B108480068C06A2F
:100D3000E16A884207D24FF0805009490860BFF34A
:100D40004F8FBFF36F8F10BD600000205000002058
:100D50006C0000207C000020680000207001002052
:100D600004ED00E070B523E000F0FAFC13480068E1
:100D700008B9012000E00020054600F05FFEBDB983
:100D800000F0B2FB0D48C068C468201D00F0F2FA04
:100D90000B480068401E0A4908600A480068401E67
:100DA0000849086000F0B2FB204600F00DF800BFD3
:100DB000044800680028D7D170BD00001002002050
:100DC000600000205C00002010B50446206B00F09D
:100DD000ADFB204600F0AAFB10BD000030B54FF47B
:100DE0008843174800F007042CB1C01D20F007000D
:100DF000134C041B1B1B0246124C22600024114D95
:100E00006C60D018083820F007000F4C20600024D8
:100E10000D4D2D686C600C4D2D682C601146441AE8
:100E20004C60094C24680C60084D4C682C60084DDF
:100E30004C682C604FF00044064D2C6030BD000023
:100E4000380200208C000020940000209C0000202C
:100E500098000020A000002000BFFFF783FF064895
:100E600000680128F9D94FF0805004490860BFF3A9
:100E70004F8FBFF36F8FF0E77001002004ED00E0AB
:100E80002DE9F05F81460E4617469A46DDF8288028
:100E90000C9CB900A522206BFFF705FA781E216B88
:100EA00001EB800B2BF0070B002507E0715D04F1CF
:100EB00034004155705D00B902E06D1C102DF5D372
:100EC00000BF002143200155B8F1050F01D34FF0B9
:100ED0000408C4F82C80201D00F0DDFA04F118008D
:100EE00000F0D9FA2461C8F10500A0616462002015
:100EF000E06484F8500052464946584600F08EF9A6
:100F000020600B9808B10B980460BDE8F09F0000CA
:100F100010B5002407E004EB84010F4A02EB8100C6
:100F200000F0ACFA641C052CF5D30C4800F0A6FACE
:100F30000B4800F0A3FA0B4800F0A0FA0A4800F0B2
:100F40009DFA0A4800F09AFA0448094908600448E2
:100F50000849086010BD000070010020D401002085
:100F6000E8010020FC0100201002002024020020E3
:100F7000540000205800002010B50146164800E03B
:100F8000006803688B42FBD30246436813448B42DC
:100F900004D143684C682344436001460A464B68C9
:100FA00013440468A34211D10C4C03682468A34283
:100FB00008D04B680468646823444B6003681B686E
:100FC0000B6005E0054B1B680B6001E003680B60DC
:100FD000884200D0016010BD8C00002094000020E9
:100FE0002DE9F04707460C4690460026206848B396
:100FF000204641684968416000F1080142688A4220
:1010000002D14168496841604168D1F80C9000BF45
:10101000204641684968416000F1080142688A42FF
:1010200002D14168496841604168CD6806EBC6005D
:1010300007EB800143460122284600F025FB761C81
:101040004D45E5D13046BDE8F08700000A49096802
:10105000096809B9012100E0002121B14FF0FF31F9
:10106000064A116006E004490968C968C868034A6D
:10107000416811607047000054000020800000208B
:101080002DE9F04102460D4600271068002843D0A4
:101090001046D0F804C0DCF804C0C0F804C000F169
:1010A000080CD0F80480E04505D1D0F804C0DCF885
:1010B00004C0C0F804C0D0F804C0DCF80C6000BF65
:1010C0001046D0F804C0DCF804C0C0F804C000F139
:1010D000080CD0F80480E04505D1D0F804C0DCF855
:1010E00004C0C0F804C0D0F804C0DCF80C10002321
:1010F0000AE001F13400C45CE85CA04200D005E0E5
:101100000CB90F4602E05B1C102BF2D300BF07B1F5
:1011100001E0B142D4D100BF3846BDE8F0810246BB
:10112000002101E0521C491C1078A528FAD089083A
:1011300088B2704700BFBF2080F31188BFF34F8F84
:10114000BFF36F8F00BF00BFFEE700002DE9F04145
:1011500005464FF0000800F003FB2B48006808B973
:10116000FFF73CFE294800682840002847D145B1D8
:10117000083505F0070020B105F00700C0F10800B0
:101180000544002D3BD022480068854237D8214EC7
:101190003046046801E0264624686068A84202D20E
:1011A00020680028F7D118480068844227D03068AA
:1011B00000F10808206830606068401B102807D9DB
:1011C00067196068401B786065603846FFF7D4FE99
:1011D0000F4960680968081A0D49086008460068E8
:1011E0000D490968884203D2094800680A49086025
:1011F000064960680968084360600020206000F0CC
:101200001DFC4046BDE8F08194000020A0000020B5
:10121000980000208C0000209C000020001F4FF050
:1012200080730360001F21F001030360001F034B64
:101230000360143802602038704700003511000840
:101240001CB5044600F050F9124802210023322256
:10125000CDE9001010A1134800F0EEFA1248032166
:1012600000233222CDE9001010A1134800F0E4FA67
:101270001248032100234FF48072CDE9001010A121
:10128000124800F0D9FA1248006800F097F900F00F
:101290003DF91CBD040000204C6564305F7461732F
:1012A0006B00000025050008080000204C65643133
:1012B0005F7461736B000000490500080C0000209A
:1012C00051756572795F7461736B0000FD050008EC
:1012D0000000002010B586B00446012144F204004D
:1012E000FFF7C6F94FF40070ADF8140003208DF835
:1012F000160018208DF8170005A91C48FFF75DF8A7
:101300004FF48060ADF8140004208DF8170005A993
:101310001648FFF752F825208DF8000003208DF8BD
:1013200001008DF8020001208DF803006846FFF7E8
:1013300023F901940020ADF80800ADF80A00ADF8DB
:101340000C00ADF810000C20ADF80E0001A9084803
:10135000FFF760FB012240F225510548FFF734FBFF
:1013600001210348FFF7FAFA06B010BD000801405A
:101370000038014001460A69D1E901309860D1E99D
:10138000010358605068884201D18868506000208D
:1013900008611068401E10601068704701480068BE
:1013A00070470000600000202DE9F04105468846A6
:1013B00016460024052700F0D3F92148006880452F
:1013C00039D300BF7F1E07EB87021E4B03EB820160
:1013D00004EBC40205EB82000122FFF701FE044486
:1013E000002FEFD104EBC40105EB81000222164966
:1013F0000968FFF7F5FD044404EBC40105EB810027
:10140000022212490968FFF7EBFD044404EBC40112
:1014100005EB810004220E49FFF7E2FD044404EBD2
:10142000C40105EB810003220A49FFF7D9FD0444FA
:101430000EB10020306000F001FB2046BDE8F081D5
:10144000600000207001002054000020580000209F
:10145000100200202402002070B5044600F044F879
:1014600014B90548006800E020460646F56A00F019
:101470004DF8284670BD00005000002000F1080122
:1014800041604FF0FF31816000F10801C1600161EE
:1014900000210160704700210161704710B50246CC
:1014A0000B685C1C0CB9106907E002F1080000E051
:1014B0004068446824689C42FAD944684C604C688F
:1014C000A160886041600A611468641C146010BDEA
:1014D00042684A6093688B609368596091600861C4
:1014E00003685B1C0360704700BFBF2080F3118856
:1014F000BFF34F8FBFF36F8F00BF03480068401CDE
:101500000149086070470000A400002006480068F8
:10151000401E054908600846006820B9002080F395
:10152000118800BF00BF7047A400002070B50646B8
:101530003546D6B1083D2C460C496068096808401C
:1015400098B1206888B90949606809688843606073
:1015500000F006F906496068096808440449086013
:101560002046FFF709FD00F069FA70BDA0000020D9
:101570009800002003484FF0E021486107200861EF
:10158000704700003F19010070B50446002544B1C2
:1015900000F0E6F800212046FFF73CFB00F04EFA91
:1015A00005463DB94FF0805003490860BFF34F8FA7
:1015B000BFF36F8F70BD000004ED00E070B505460D
:1015C000FFF792FF15B92748006800E02846044657
:1015D000201DFFF7CFFE78B9E06A00EB80002249BA
:1015E00051F8200040B994F82C10012088401F4980
:1015F000096881431D480160A06A18B104F1180010
:10160000FFF7B8FE1A480068401C194908601548E1
:101610000068844209D1211D1648FFF759FF16487A
:101620000068401C1449086009E014480068401E26
:10163000124908602046FFF7C7FBFFF707FDFFF7D9
:1016400065FF0F48006858B106480068844207D11A
:101650004FF080500B490860BFF34F8FBFF36F8F7F
:1016600070BD0000500000207001002068000020C4
:101670007C000020100200205C00002060000020A0
:101680006C00002004ED00E02DE9F04107460C4617
:1016900090461E4617B91848006800E038460546CF
:1016A000256005F134006060E86A2061286BE06124
:1016B000686CA060207B032807D100F051F8A86A6D
:1016C00008B10220207300F0B9F900206061A06128
:1016D000052E01D0267303E03846FFF73FFA20734A
:1016E000B8F1000F04D0286BFFF719FD208401E04A
:1016F00000202084BDE8F081500000201CB5114876
:1017000000210B468022CDE900100FA1104800F007
:1017100093F80446012C14D100BFBF2080F3118838
:10172000BFF34F8FBFF36F8F00BF4FF0FF300949FA
:10173000086001200849086000200849086000F09E
:1017400047F81CBD8400002049444C4500000000BF
:10175000590E0008800000206C000020640000206A
:1017600002480068401C014908607047880000205A
:101770001248006818B10120114908601DE00020DE
:101780000F4908600F480068B0FA80F0C0F11F01EF
:1017900001EB81020C4B03EB82004268526842600D
:1017A00000F108024368934202D1426852684260E5
:1017B0004268D268054B1A6000BF7047880000205D
:1017C00074000020680000207001002050000020FC
:1017D00010B50A48006840F47F00084908600846D0
:1017E000006840F07F400860FFF7C4FE0020044915
:1017F0000860FEF7FDFC002010BD000020ED00E0B9
:10180000A400002010B500BFBF2080F31188BFF3F3
:101810004F8FBFF36F8F00BF00F082F818B14FF009
:1018200080500449086000BF002080F3118800BF89
:1018300010BD000004ED00E02DE9FF4F85B08046AB
:1018400089461746DDE912ABB800FFF77FFC064674
:1018500056B15420FFF77AFC04460CB1266304E02D
:101860003046FFF763FE00E000247CB10020CDE9A4
:1018700000ABCDE902403A4649464046089BFFF797
:10188000FFFA2046FFF712FA012501E04FF0FF357D
:10189000284609B0BDE8F08F70B506460525FFF76C
:1018A0005FFF00BF6D1E05EB8501154A02EB81004D
:1018B0003146FFF7E5FB044604B101E0002DF1D10C
:1018C00000BF2CB931460F480068FFF7D9FB04462A
:1018D0002CB931460C480068FFF7D2FB044624B906
:1018E00031460A48FFF7CCFB044624B93146084884
:1018F000FFF7C6FB044600F0A1F8204670BD0000CB
:101900007001002054000020580000202402002014
:101910001002002001480068704700008400002089
:101920002DE9F04100273A480068002863D1394882
:101930000068451C374805608DB93748D0F80080ED
:1019400036480068344908603448C0F8008034489C
:101950000068401C32490860FFF778FB00BF31483F
:10196000006885423BD300BF2B480068006808B977
:10197000012000E0002020B14FF0FF30294908602D
:101980002CE025480068C068C4686668B54202D289
:101990002448066022E0201DFFF7ECFCA06A18B185
:1019A00004F11800FFF7E6FC94F82C1001208840A1
:1019B0001D49096808431C490860E16A01EB81017F
:1019C0001A4A02EB8100211DFFF782FD1849E06AE7
:1019D0000968C96A8842C7D30127C5E700BF144810
:1019E0000068C06A00EB8000104951F8200001280F
:1019F00000D9012704E00F480068401C0D49086029
:101A00000D48006800B101273846BDE8F0810000AC
:101A100088000020640000205400002058000020AE
:101A20007800002080000020680000207001002065
:101A300050000020700000207400002070B50024C9
:101A40000026FFF751FD2E480068401E2C49086013
:101A50000846006800284FD12A48006800284BD06B
:101A600024E02948C068C46804F11800FFF782FC2C
:101A7000201DFFF77FFC94F82C100120884023499B
:101A80000968084321490860E16A01EB8101204AA5
:101A900002EB8100211DFFF71BFD1E49E06A09686A
:101AA000C96A884202D301201B49086016480068B1
:101AB00008B9012000E000200028D2D00CB1FFF7C7
:101AC000C5FA1648056865B100BFFFF729FF10B1D8
:101AD0000120114908606D1E002DF6D100200F492C
:101AE00008600D48006838B1012630070C490860CD
:101AF000BFF34F8FBFF36F8FFFF708FD304670BD08
:101B00008800002060000020FC0100206800002008
:101B100070010020500000207400002070000020A0
:101B200004ED00E0441B000800000020A8000000B5
:101B30006C010008EC1B0008A8000020F04B00001E
:101B40008801000800000000000000000000000004
:101B50000000000000000000000000000000000085
:101B600000A24A040000000000000000010203047B
:101B70000607080900000000000000000000000047
:101B8000000001020304010203040607080902041D
:101B90000608000000000000000000000000000037
:101BA0000000000000000000000000000000000035
:101BB0000000000000000000000000000000000025
:101BC0000000000000000000000000000000000015
:101BD0000000000000000000000000000000000005
:0C1BE0000000000000000000AAAAAAAA51
:040000050800026588
:00000001FF
